{
  "_format": "hh-sol-artifact-1",
  "contractName": "poolstake",
  "sourceName": "contracts/poolstake.sol",
  "abi": [
    {
      "inputs": [
        {
          "internalType": "address",
          "name": "_stakingToken",
          "type": "address"
        },
        {
          "internalType": "address",
          "name": "_rewardToken",
          "type": "address"
        }
      ],
      "stateMutability": "nonpayable",
      "type": "constructor"
    },
    {
      "inputs": [],
      "name": "ReentrancyGuardReentrantCall",
      "type": "error"
    },
    {
      "anonymous": false,
      "inputs": [
        {
          "indexed": true,
          "internalType": "address",
          "name": "user",
          "type": "address"
        },
        {
          "indexed": false,
          "internalType": "uint256",
          "name": "reward",
          "type": "uint256"
        }
      ],
      "name": "RewardPaid",
      "type": "event"
    },
    {
      "anonymous": false,
      "inputs": [
        {
          "indexed": false,
          "internalType": "uint256",
          "name": "newRate",
          "type": "uint256"
        }
      ],
      "name": "RewardRateUpdated",
      "type": "event"
    },
    {
      "anonymous": false,
      "inputs": [
        {
          "indexed": true,
          "internalType": "address",
          "name": "user",
          "type": "address"
        },
        {
          "indexed": false,
          "internalType": "uint256",
          "name": "amount",
          "type": "uint256"
        }
      ],
      "name": "Staked",
      "type": "event"
    },
    {
      "anonymous": false,
      "inputs": [
        {
          "indexed": true,
          "internalType": "address",
          "name": "user",
          "type": "address"
        },
        {
          "indexed": false,
          "internalType": "uint256",
          "name": "amount",
          "type": "uint256"
        }
      ],
      "name": "Unstaked",
      "type": "event"
    },
    {
      "inputs": [
        {
          "internalType": "address",
          "name": "account",
          "type": "address"
        }
      ],
      "name": "balanceOf",
      "outputs": [
        {
          "internalType": "uint256",
          "name": "",
          "type": "uint256"
        }
      ],
      "stateMutability": "view",
      "type": "function"
    },
    {
      "inputs": [],
      "name": "claimReward",
      "outputs": [],
      "stateMutability": "nonpayable",
      "type": "function"
    },
    {
      "inputs": [
        {
          "internalType": "address",
          "name": "account",
          "type": "address"
        }
      ],
      "name": "earned",
      "outputs": [
        {
          "internalType": "uint256",
          "name": "",
          "type": "uint256"
        }
      ],
      "stateMutability": "view",
      "type": "function"
    },
    {
      "inputs": [],
      "name": "lastUpdateTime",
      "outputs": [
        {
          "internalType": "uint256",
          "name": "",
          "type": "uint256"
        }
      ],
      "stateMutability": "view",
      "type": "function"
    },
    {
      "inputs": [],
      "name": "rewardPerToken",
      "outputs": [
        {
          "internalType": "uint256",
          "name": "",
          "type": "uint256"
        }
      ],
      "stateMutability": "view",
      "type": "function"
    },
    {
      "inputs": [],
      "name": "rewardPerTokenStored",
      "outputs": [
        {
          "internalType": "uint256",
          "name": "",
          "type": "uint256"
        }
      ],
      "stateMutability": "view",
      "type": "function"
    },
    {
      "inputs": [],
      "name": "rewardRate",
      "outputs": [
        {
          "internalType": "uint256",
          "name": "",
          "type": "uint256"
        }
      ],
      "stateMutability": "view",
      "type": "function"
    },
    {
      "inputs": [],
      "name": "rewardToken",
      "outputs": [
        {
          "internalType": "contract IERC20",
          "name": "",
          "type": "address"
        }
      ],
      "stateMutability": "view",
      "type": "function"
    },
    {
      "inputs": [
        {
          "internalType": "address",
          "name": "",
          "type": "address"
        }
      ],
      "name": "rewards",
      "outputs": [
        {
          "internalType": "uint256",
          "name": "",
          "type": "uint256"
        }
      ],
      "stateMutability": "view",
      "type": "function"
    },
    {
      "inputs": [
        {
          "internalType": "uint256",
          "name": "_rewardRate",
          "type": "uint256"
        }
      ],
      "name": "setRewardRate",
      "outputs": [],
      "stateMutability": "nonpayable",
      "type": "function"
    },
    {
      "inputs": [
        {
          "internalType": "uint256",
          "name": "amount",
          "type": "uint256"
        }
      ],
      "name": "stake",
      "outputs": [],
      "stateMutability": "nonpayable",
      "type": "function"
    },
    {
      "inputs": [
        {
          "internalType": "address",
          "name": "",
          "type": "address"
        }
      ],
      "name": "stakedBalance",
      "outputs": [
        {
          "internalType": "uint256",
          "name": "",
          "type": "uint256"
        }
      ],
      "stateMutability": "view",
      "type": "function"
    },
    {
      "inputs": [],
      "name": "stakingToken",
      "outputs": [
        {
          "internalType": "contract IERC20",
          "name": "",
          "type": "address"
        }
      ],
      "stateMutability": "view",
      "type": "function"
    },
    {
      "inputs": [],
      "name": "totalStaked",
      "outputs": [
        {
          "internalType": "uint256",
          "name": "",
          "type": "uint256"
        }
      ],
      "stateMutability": "view",
      "type": "function"
    },
    {
      "inputs": [
        {
          "internalType": "uint256",
          "name": "amount",
          "type": "uint256"
        }
      ],
      "name": "unstake",
      "outputs": [],
      "stateMutability": "nonpayable",
      "type": "function"
    },
    {
      "inputs": [
        {
          "internalType": "address",
          "name": "",
          "type": "address"
        }
      ],
      "name": "userRewardPerTokenPaid",
      "outputs": [
        {
          "internalType": "uint256",
          "name": "",
          "type": "uint256"
        }
      ],
      "stateMutability": "view",
      "type": "function"
    }
  ],
  "bytecode": "0x608060405267016345785d8a000060035534801561001c57600080fd5b506040516116b03803806116b0833981810160405281019061003e9190610139565b600160008190555081600160006101000a81548173ffffffffffffffffffffffffffffffffffffffff021916908373ffffffffffffffffffffffffffffffffffffffff16021790555080600260006101000a81548173ffffffffffffffffffffffffffffffffffffffff021916908373ffffffffffffffffffffffffffffffffffffffff160217905550426004819055505050610179565b600080fd5b600073ffffffffffffffffffffffffffffffffffffffff82169050919050565b6000610106826100db565b9050919050565b610116816100fb565b811461012157600080fd5b50565b6000815190506101338161010d565b92915050565b600080604083850312156101505761014f6100d6565b5b600061015e85828601610124565b925050602061016f85828601610124565b9150509250929050565b611528806101886000396000f3fe608060405234801561001057600080fd5b50600436106100ff5760003560e01c80638b87634711610097578063c8f33c9111610066578063c8f33c91146102ac578063cd3daf9d146102ca578063df136d65146102e8578063f7c618c114610306576100ff565b80638b8763471461023a5780639e447fc61461026a578063a694fc3a14610286578063b88a802f146102a2576100ff565b806370a08231116100d357806370a08231146101b057806372f702f3146101e05780637b0a47ee146101fe578063817b1cd21461021c576100ff565b80628cc262146101045780630700037d146101345780632e17de78146101645780636021726714610180575b600080fd5b61011e60048036038101906101199190610f84565b610324565b60405161012b9190610fca565b60405180910390f35b61014e60048036038101906101499190610f84565b610426565b60405161015b9190610fca565b60405180910390f35b61017e60048036038101906101799190611011565b61043e565b005b61019a60048036038101906101959190610f84565b610785565b6040516101a79190610fca565b60405180910390f35b6101ca60048036038101906101c59190610f84565b61079d565b6040516101d79190610fca565b60405180910390f35b6101e86107e6565b6040516101f5919061109d565b60405180910390f35b61020661080c565b6040516102139190610fca565b60405180910390f35b610224610812565b6040516102319190610fca565b60405180910390f35b610254600480360381019061024f9190610f84565b610818565b6040516102619190610fca565b60405180910390f35b610284600480360381019061027f9190611011565b610830565b005b6102a0600480360381019061029b9190611011565b6108c9565b005b6102aa610b90565b005b6102b4610e3c565b6040516102c19190610fca565b60405180910390f35b6102d2610e42565b6040516102df9190610fca565b60405180910390f35b6102f0610ea5565b6040516102fd9190610fca565b60405180910390f35b61030e610eab565b60405161031b919061109d565b60405180910390f35b6000600860008373ffffffffffffffffffffffffffffffffffffffff1673ffffffffffffffffffffffffffffffffffffffff16815260200190815260200160002054670de0b6b3a7640000600960008573ffffffffffffffffffffffffffffffffffffffff1673ffffffffffffffffffffffffffffffffffffffff168152602001908152602001600020546103b7610e42565b6103c191906110e7565b600760008673ffffffffffffffffffffffffffffffffffffffff1673ffffffffffffffffffffffffffffffffffffffff1681526020019081526020016000205461040b919061111b565b610415919061118c565b61041f91906111bd565b9050919050565b60086020528060005260406000206000915090505481565b610446610ed1565b3361044f610e42565b60068190555042600481905550600073ffffffffffffffffffffffffffffffffffffffff168173ffffffffffffffffffffffffffffffffffffffff16146105235761049981610324565b600860008373ffffffffffffffffffffffffffffffffffffffff1673ffffffffffffffffffffffffffffffffffffffff16815260200190815260200160002081905550600654600960008373ffffffffffffffffffffffffffffffffffffffff1673ffffffffffffffffffffffffffffffffffffffff168152602001908152602001600020819055505b60008211610566576040517f08c379a000000000000000000000000000000000000000000000000000000000815260040161055d9061124e565b60405180910390fd5b81600760003373ffffffffffffffffffffffffffffffffffffffff1673ffffffffffffffffffffffffffffffffffffffff1681526020019081526020016000205410156105e8576040517f08c379a00000000000000000000000000000000000000000000000000000000081526004016105df906112ba565b60405180910390fd5b816005546105f691906110e7565b60058190555081600760003373ffffffffffffffffffffffffffffffffffffffff1673ffffffffffffffffffffffffffffffffffffffff1681526020019081526020016000205461064791906110e7565b600760003373ffffffffffffffffffffffffffffffffffffffff1673ffffffffffffffffffffffffffffffffffffffff16815260200190815260200160002081905550600160009054906101000a900473ffffffffffffffffffffffffffffffffffffffff1673ffffffffffffffffffffffffffffffffffffffff1663a9059cbb33846040518363ffffffff1660e01b81526004016106e79291906112e9565b6020604051808303816000875af1158015610706573d6000803e3d6000fd5b505050506040513d601f19601f8201168201806040525081019061072a919061134a565b503373ffffffffffffffffffffffffffffffffffffffff167f0f5bb82176feb1b5e747e28471aa92156a04d9f3ab9f45f28e2d704232b93f75836040516107719190610fca565b60405180910390a250610782610f17565b50565b60076020528060005260406000206000915090505481565b6000600760008373ffffffffffffffffffffffffffffffffffffffff1673ffffffffffffffffffffffffffffffffffffffff168152602001908152602001600020549050919050565b600160009054906101000a900473ffffffffffffffffffffffffffffffffffffffff1681565b60035481565b60055481565b60096020528060005260406000206000915090505481565b60008111610873576040517f08c379a000000000000000000000000000000000000000000000000000000000815260040161086a906113c3565b60405180910390fd5b61087b610e42565b60068190555042600481905550806003819055507f41d466ebd06fb97e7786086ac8b69b7eb7da798592036251291d34e9791cde01816040516108be9190610fca565b60405180910390a150565b6108d1610ed1565b336108da610e42565b60068190555042600481905550600073ffffffffffffffffffffffffffffffffffffffff168173ffffffffffffffffffffffffffffffffffffffff16146109ae5761092481610324565b600860008373ffffffffffffffffffffffffffffffffffffffff1673ffffffffffffffffffffffffffffffffffffffff16815260200190815260200160002081905550600654600960008373ffffffffffffffffffffffffffffffffffffffff1673ffffffffffffffffffffffffffffffffffffffff168152602001908152602001600020819055505b600082116109f1576040517f08c379a00000000000000000000000000000000000000000000000000000000081526004016109e89061142f565b60405180910390fd5b816005546109ff91906111bd565b60058190555081600760003373ffffffffffffffffffffffffffffffffffffffff1673ffffffffffffffffffffffffffffffffffffffff16815260200190815260200160002054610a5091906111bd565b600760003373ffffffffffffffffffffffffffffffffffffffff1673ffffffffffffffffffffffffffffffffffffffff16815260200190815260200160002081905550600160009054906101000a900473ffffffffffffffffffffffffffffffffffffffff1673ffffffffffffffffffffffffffffffffffffffff166323b872dd3330856040518463ffffffff1660e01b8152600401610af29392919061144f565b6020604051808303816000875af1158015610b11573d6000803e3d6000fd5b505050506040513d601f19601f82011682018060405250810190610b35919061134a565b503373ffffffffffffffffffffffffffffffffffffffff167f9e71bc8eea02a63969f509818f2dafb9254532904319f9dbda79b67bd34a5f3d83604051610b7c9190610fca565b60405180910390a250610b8d610f17565b50565b610b98610ed1565b33610ba1610e42565b60068190555042600481905550600073ffffffffffffffffffffffffffffffffffffffff168173ffffffffffffffffffffffffffffffffffffffff1614610c7557610beb81610324565b600860008373ffffffffffffffffffffffffffffffffffffffff1673ffffffffffffffffffffffffffffffffffffffff16815260200190815260200160002081905550600654600960008373ffffffffffffffffffffffffffffffffffffffff1673ffffffffffffffffffffffffffffffffffffffff168152602001908152602001600020819055505b6000600860003373ffffffffffffffffffffffffffffffffffffffff1673ffffffffffffffffffffffffffffffffffffffff16815260200190815260200160002054905060008111610cfc576040517f08c379a0000000000000000000000000000000000000000000000000000000008152600401610cf3906114d2565b60405180910390fd5b6000600860003373ffffffffffffffffffffffffffffffffffffffff1673ffffffffffffffffffffffffffffffffffffffff16815260200190815260200160002081905550600260009054906101000a900473ffffffffffffffffffffffffffffffffffffffff1673ffffffffffffffffffffffffffffffffffffffff1663a9059cbb33836040518363ffffffff1660e01b8152600401610d9e9291906112e9565b6020604051808303816000875af1158015610dbd573d6000803e3d6000fd5b505050506040513d601f19601f82011682018060405250810190610de1919061134a565b503373ffffffffffffffffffffffffffffffffffffffff167fe2403640ba68fed3a2f88b7557551d1993f84b99bb10ff833f0cf8db0c5e048682604051610e289190610fca565b60405180910390a25050610e3a610f17565b565b60045481565b60008060055403610e57576006549050610ea2565b600554670de0b6b3a764000060035460045442610e7491906110e7565b610e7e919061111b565b610e88919061111b565b610e92919061118c565b600654610e9f91906111bd565b90505b90565b60065481565b600260009054906101000a900473ffffffffffffffffffffffffffffffffffffffff1681565b600260005403610f0d576040517f3ee5aeb500000000000000000000000000000000000000000000000000000000815260040160405180910390fd5b6002600081905550565b6001600081905550565b600080fd5b600073ffffffffffffffffffffffffffffffffffffffff82169050919050565b6000610f5182610f26565b9050919050565b610f6181610f46565b8114610f6c57600080fd5b50565b600081359050610f7e81610f58565b92915050565b600060208284031215610f9a57610f99610f21565b5b6000610fa884828501610f6f565b91505092915050565b6000819050919050565b610fc481610fb1565b82525050565b6000602082019050610fdf6000830184610fbb565b92915050565b610fee81610fb1565b8114610ff957600080fd5b50565b60008135905061100b81610fe5565b92915050565b60006020828403121561102757611026610f21565b5b600061103584828501610ffc565b91505092915050565b6000819050919050565b600061106361105e61105984610f26565b61103e565b610f26565b9050919050565b600061107582611048565b9050919050565b60006110878261106a565b9050919050565b6110978161107c565b82525050565b60006020820190506110b2600083018461108e565b92915050565b7f4e487b7100000000000000000000000000000000000000000000000000000000600052601160045260246000fd5b60006110f282610fb1565b91506110fd83610fb1565b9250828203905081811115611115576111146110b8565b5b92915050565b600061112682610fb1565b915061113183610fb1565b925082820261113f81610fb1565b91508282048414831517611156576111556110b8565b5b5092915050565b7f4e487b7100000000000000000000000000000000000000000000000000000000600052601260045260246000fd5b600061119782610fb1565b91506111a283610fb1565b9250826111b2576111b161115d565b5b828204905092915050565b60006111c882610fb1565b91506111d383610fb1565b92508282019050808211156111eb576111ea6110b8565b5b92915050565b600082825260208201905092915050565b7f43616e6e6f7420756e7374616b65203000000000000000000000000000000000600082015250565b60006112386010836111f1565b915061124382611202565b602082019050919050565b600060208201905081810360008301526112678161122b565b9050919050565b7f496e73756666696369656e742062616c616e6365000000000000000000000000600082015250565b60006112a46014836111f1565b91506112af8261126e565b602082019050919050565b600060208201905081810360008301526112d381611297565b9050919050565b6112e381610f46565b82525050565b60006040820190506112fe60008301856112da565b61130b6020830184610fbb565b9392505050565b60008115159050919050565b61132781611312565b811461133257600080fd5b50565b6000815190506113448161131e565b92915050565b6000602082840312156113605761135f610f21565b5b600061136e84828501611335565b91505092915050565b7f5265776172642072617465206d75737420626520706f73697469766500000000600082015250565b60006113ad601c836111f1565b91506113b882611377565b602082019050919050565b600060208201905081810360008301526113dc816113a0565b9050919050565b7f43616e6e6f74207374616b652030000000000000000000000000000000000000600082015250565b6000611419600e836111f1565b9150611424826113e3565b602082019050919050565b600060208201905081810360008301526114488161140c565b9050919050565b600060608201905061146460008301866112da565b61147160208301856112da565b61147e6040830184610fbb565b949350505050565b7f4e6f207265776172647320746f20636c61696d00000000000000000000000000600082015250565b60006114bc6013836111f1565b91506114c782611486565b602082019050919050565b600060208201905081810360008301526114eb816114af565b905091905056fea2646970667358221220309e9158a7df18137a5d55f25fffa6d8631a1e0f1a16d62aa52531efac42dd2e64736f6c634300081c0033",
  "linkReferences": {},
  "deployedLinkReferences": {}
}